:020000040800F2
:10000000E80A0020A1010008772A00080529000855
:10001000752A0008AD120008C5380008000000006D
:100020000000000000000000000000002D2D00086E
:10003000AF12000800000000792A00080132000811
:10004000BB010008BB010008BB010008BB010008A0
:10005000BB010008BB010008BB010008BB01000890
:10006000BB010008BB010008BB010008BB01000880
:10007000BB010008BB010008BB010008BB01000870
:10008000BB010008BB010008BB010008BB01000860
:10009000BB010008BB010008BB010008BB01000850
:1000A000BB010008BB010008BB010008BB01000840
:1000B000BB010008BB010008BB010008BB01000830
:1000C000BB010008BB010008BB010008BB01000820
:1000D000BB010008AD380008BB010008B9380008B2
:1000E000BB010008BB010008BB010008BB01000800
:1000F000BB010008BB010008BB010008BB010008F0
:10010000BB010008BB010008BB010008BB010008DF
:10011000BB010008BB010008BB010008BB010008CF
:10012000BB010008BB010008BB010008BB010008BF
:10013000BB010008BB010008BB010008BB010008AF
:10014000BB010008BB010008BB010008BB0100089F
:10015000BB010008BB010008BB010008BB0100088F
:10016000BB010008BB010008BB010008BB0100087F
:10017000BB010008BB010008BB0100080000000033
:10018000BB010008BB010008DFF810D000F090FEB2
:100190000048004795430008AFF30080E80A0020BC
:1001A0000648804706480047FEE7FEE7FEE7FEE711
:1001B000FEE7FEE7FEE7FEE7FEE7FEE79532000812
:1001C000890100082DE9F05F0546002092469B4614
:1001D00088460646814640241BE02846414647465D
:1001E000224600F090FC53465A46C01A914110D363
:1001F00011461846224600F077FC2D1A67EB0108DD
:100200004F4622460120002100F06EFC17EB00094A
:100210004E41201EA4F10104DFDC484631462A4647
:10022000434600F000B830BCBDE8C09FD2B201E048
:1002300000F8012B491EFBD270470022F6E710B5EB
:1002400013460A4604461946FFF7F0FF204610BD44
:1002500030B505462A460B4612F8010B13F8014B40
:1002600008B1A042F8D01CB1002802D06D1CF1E703
:10027000284630BD421C10F8011B0029FBD1801A12
:10028000704700000FB400B58DB010A909900B9015
:1002900000914FF0FF300A9000200C900548069026
:1002A000054807906A4609A80F9900F063FC0DB055
:1002B0005DF814FB910B0008AF0B00082DE9FF5F00
:1002C0001D464FF0FF3BD5E9014691465F464FF092
:1002D0000008A9697F1C01988847296A82468847D7
:1002E0000028F6D1BAF1FF3F0CD024F4C064002EF0
:1002F00019DD600614D5BAF12B0F09D0BAF12D0F14
:100300000ED103E0584604B000F07EB844F4806497
:10031000A9697F1C01988847761E8246002E02DD5F
:10032000BAF1300F03D0B9F1000F26D032E0A9693D
:10033000761E44F400747F1C019888478246002E84
:1003400005DDBAF1780F06D0BAF1580F03D0B9F134
:10035000000F10D01EE0B9F1000F02D0B9F1100F5C
:1003600018D1A969761E24F400747F1C019888476F
:100370008246102002E0082000E00A20814609E0C1
:1003800008FB0908A969761E44F400747F1C0198D3
:1003900088478246002E05DD4946504600F0D5FBD1
:1003A0000028EDDAE96901988847A00502D46FF0CA
:1003B0000100A8E7E00725D1600613D5600502D546
:1003C000C8F1000000E0404629680A1D2A6009685B
:1003D000220501D5087015E0220701D5088011E03B
:1003E00008600FE02868011D29600068210502D51A
:1003F00080F8008006E0210702D5A0F8008001E027
:10040000C0F8008038467EE730BCBDE8C09F2DE9CB
:10041000FF5FD2E901A74FF00008916999461446A1
:10042000DDF838B0464601988847054659EA0B0082
:1004300005D009E0A169761C019888470546216A24
:10044000284688470028F5D1681C03D05FEACA70A7
:1004500005D015E04FF0FF3004B000F048B8206838
:10046000011D2160D0F800800AE05FEACA7001D166
:1004700008F8015BA169761C7F1E01988847054634
:10048000002F1ADD681C18D0B9F1000F0DD0E81745
:1004900005EBD060421120F01F0059F822102A1AF3
:1004A000012090400142E0D107E0BBF1000FDCD118
:1004B000216A284688470028D7D0E16901988847F3
:1004C000BBF1000F07D1002E05DD5FEACA7002D133
:1004D000002188F80010A068B84203DDBBF1000FCE
:1004E00003D017B16FF00100B6E73046B4E730BC77
:1004F000BDE8C09F2DE9FF4F087883B09946FF28DB
:1005000005D0491C2D2804D00024002008E000203C
:100510000BE00124F9E700EB800003EB4000491CED
:100520000B78FF2BF7D104B14042002302931478DB
:1005300019461D462D2C01D02B2C04D1521C2D2CDC
:1005400013D000240294AA461478FF2C0FD00A2559
:10055000A3FB057801FB05814FF0000C03FB0C1198
:10056000521CE3194AEB0101EEE70124EAE781445A
:1005700053EA010002D019F5C87F06DA039800217A
:10058000C0E9001107B000F065B90025AE4E2F4656
:10059000DFF8B882184600F033FCCDE90001B9F16C
:1005A000000002DAC9F1000400E004460023A74A73
:1005B0001AEB030B42EB045A12E0E00707D02A467D
:1005C00033463846414600F060FB074688462A46D7
:1005D00033461046194600F058FB05460E46641097
:1005E000002CEAD1DDE90001B9F1000F5A4653466B
:1005F00006DA00F0E1F93A46434600F0DDF905E09D
:1006000000F043FB3A46434600F03FFB029A0AB132
:1006100081F00041039AC2E90001B3E72DE9FF4FE1
:100620001F468DB0D7E901464FF0FF382E204546D2
:100630004FF000090B90B9696D1C0E988847396A14
:10064000824688470028F6D1BAF1FF3F0AD024F449
:10065000D064002E11DDBAF12B0F08D0BAF12D0FA6
:100660000BD102E0404611B08DE744F48064B969D3
:100670006D1C0E9888478246761E6946600501D536
:100680002D2000E02B208DF8000001F1010B0DF171
:10069000200809E0B9696D1C0E98884782460F98BA
:1006A00044F40074761E0560002E02DDBAF1300FAE
:1006B000F0D00B998A453ED144F0800406E00F99B2
:1006C000681CA9F1010944F400740860B9696D1C43
:1006D000761E0E98884782463028F0D02BE00B9982
:1006E0008A4505D1200603D444F08004761E18E024
:1006F000504603F07CFA08B30DF11301761E44F462
:1007000000748B4508D2AAF130000BF8010B2006CB
:1007100007D5A9F1010003E0200602D409F1010088
:100720008146A00502D50F99681C0860B9696D1C47
:100730000E9888478246002ED1DC53E0002E51DD12
:10074000BAF1650F02D0BAF1450F4BD1A00549D5DA
:10075000B9696D1C24F44074761E0E988847824651
:10076000002E0CDD2B2804D0BAF12D0F07D144F454
:100770008074B9696D1C0E9888478246761EE00524
:1007800001D52D2100E02B2108F8011BCDF82C808C
:1007900021E00DF12901761E44F4007488450CD245
:1007A000AAF1300010F0FF0088F8000002D10B9988
:1007B000884509D908F1010806E0E00501D524487B
:1007C00001E042F20F708146B9696D1C0E988847AE
:1007D00082460F980560002E04DD504603F007FAAC
:1007E0000028D6D1F9690E988847FF208BF80000C1
:1007F00088F800000020069007904B466A4608A93A
:1008000006A8FFF777FEA00502D46FF001002AE7E3
:1008100014F0240F0AD0E00714D1DDE9061238687D
:10082000031D3B600068C0E900120BE0DDE9060132
:1008300000F022FB0146E00704D13868021D3A604F
:100840000068016028460EE7000014400000F03FF9
:10085000F1D8FFFF30BCBDE8C08F2DE9FE4F8046C8
:1008600081EA0300C00F0C46009021F0004123F004
:100870000045B8EB0200A94105D24046214690460A
:100880001C460B46024623F00040104347D0270D7C
:10089000C7F30A00C3F30A510290401A019040289E
:1008A0006BDAC3F3130040F4801B0098924620B12A
:1008B0000023D2EB030A63EB0B0B01985946C0F1FE
:1008C0004002504600F010F906460D465046594683
:1008D000019A00F028F910EB08006141002487EA32
:1008E000115284EAE7731A4340D0009A62B3019A26
:1008F000012A4FEA075215DC001B61EB02014FF0A1
:10090000004202EA0752CDE90042001C41F5801185
:1009100032462B4600F06BF903B000F045B8404674
:100920002146F9E7001B61EB0201001C41F5801331
:1009300000185B412018A2F5001747EB030140EABD
:10094000D570B6196D4111E06D084FEA360645EADB
:10095000C0754FEA0752001B61EB0201001C41F514
:10096000801149084FEA30000019514132462B46A8
:1009700003B000F01CB800F02BB900980122400031
:100980000023D0EB020263EBE073009821464FEAAC
:10099000E074B8EB000061EB0401E9E783F0004389
:1009A0005BE781F0004158E730BCBDE8C08F30BC48
:1009B000BDE8C04FFFF7DFBF2DE9F04D81EA03042A
:1009C00004F0004B21F0004514464FF0000A23F0DC
:1009D000004150EA050220D054EA01021DD0C5F3BF
:1009E0000A570246C5F31303C1F31300C1F30A56B5
:1009F00040F4801543F48013A7EB0608101BD6467D
:100A000008F2FD3873EB050002D308F1010801E09C
:100A100092185B41B8F1000F03DA00200146BDE8EF
:100A2000F08D00204FF48011064684460EE0171B1F
:100A300073EB050705D3121B63EB050306434CEA72
:100A4000010C49084FEA300092185B4150EA010757
:100A5000EDD152EA030012D082EA040083EA0501D4
:100A6000084305D0101BAB4106D20122002306E04B
:100A700000224FF0004302E06FF0010253101AEB26
:100A800006004CEB085110EB0A0041EB0B01BDE8EE
:100A9000F04D00F09DB800F0004230F000400AD068
:100AA000C10D01F56071C0F3160042EA0151C208A0
:100AB00040071143704700200146704730B50B4690
:100AC000014600202022012409E021FA02F59D427E
:100AD00005D303FA02F5491B04FA02F52844151E52
:100AE000A2F10102F1DC30BD202A04DB203A00FA39
:100AF00002F1002070479140C2F1200320FA03F375
:100B0000194390407047202A04DB203A21FA02F072
:100B10000021704721FA02F3D040C2F12002914037
:100B2000084319467047202A06DBCB17203A41FAC2
:100B300002F043EAE07306E041FA02F3D040C2F16A
:100B4000200291400843194670473A2800D23038B5
:100B500020F02002412A01D3A2F13700884201D3BC
:100B60004FF0FF30704700000268114413780160B5
:100B700018467047D160044951610449116200214F
:100B80001161114600F0ACB9690B0008D50E0008E0
:100B9000426842B1016811F8013B23B1521EC0E91D
:100BA0000012184670470121C160881E70474268D4
:100BB0005AB1C368016843B983688B4205D0491EA6
:100BC000521CC0E90012002070474FF0FF30704700
:100BD00010B5141E73F1000408DA401C41F1000145
:100BE00092185B411A4301D120F0010010BD2DE99C
:100BF000F04D92469B4611B1B1FA81F202E0B0FA93
:100C000080F220329046FFF76FFF04460F4640EA1D
:100C10000A0041EA0B0153465A46084313D01146D5
:100C200053EA010019D0C8F140025046FFF76BFFAC
:100C300005460E46504659464246FFF755FF0843C3
:100C400005D0012004E020463946BDE8F08D0020A3
:100C5000054346EAE0762C4337430A986305E40AE5
:100C6000A0EB08000022FD0A44EA47540A3002D5EE
:100C700000200146E9E7010510196941DDE9084551
:100C800000196941BDE8F04DA2E72DE9FE4F81EA68
:100C9000030404F0004421F0004100944FF0000BE5
:100CA00023F0004350EA01045ED052EA03045BD013
:100CB000C3F30A54C1F30A552C44A4F2F33401944B
:100CC000A0FB0254C1F3130141F48011C3F31303D9
:100CD00043F4801301FB024400FB034E840A970A8D
:100CE00044EA815447EA8357A4FB076802958D0ABA
:100CF00005FB07854FEA932C04FB0C542705029D46
:100D00004FEA065847EA1637B5EB08056EEB070CB5
:100D1000870E920E47EA811742EA8312A7FB02016F
:100D2000B6EB0B0164EB00042B0D43EA0C335E18A9
:100D300044EB1C50DA465146E7FB0201C5F31304AD
:100D40004FEA0B3343EA14534FEA0432019C43EA5F
:100D50000603A4F10C040294009CCDE900B4FFF753
:100D600046FF03B000F003B800200146F9E730BCAD
:100D7000BDE8C08F2DE9FE4FC3F30A5701F00045CF
:100D80000024C1F30A56C3F31303C1F3130143F460
:100D9000801312EB020AA64641F48011009543EB42
:100DA000030CA7F1010B16E0B0EB0A0061EB0C019C
:100DB000071E71F1000707DA4FF00008D0EB0800BA
:100DC00085F0004568EB0101171A73EB0107EBD3BF
:100DD000761E001849415E45F6DA50EA010209D054
:100DE000CDE900E5002213460296FFF700FF03B0AD
:100DF00000F003B820460099F9E730BCBDE8C08F89
:100E00000EB540F2334202920022CDE90022134691
:100E1000FFF7EDFE03B000BDC1F30A52C1F31301A9
:100E200040F2FF3341F480119A4202DA0020014679
:100E3000704740F233439A42A2F2334202DC5242FC
:100E4000FFF761BEFFF750BE30B5041E71F100041C
:100E500004DB4FF00044404264EB0101141E73F1C7
:100E6000000405DB1C464FF00043524263EB0403D1
:100E7000994208BF904230BD01F0004330B421F0E8
:100E8000004150EA010206D00A0DA2F56072C1F3DA
:100E90001301002A02DC30BC00207047440F44EAF2
:100EA000C104C100E01830BC00EBC25000F0B3B97F
:100EB000064C074D06E0E06840F0010394E80700A7
:100EC00098471034AC42F6D3FFF762F93C4600086D
:100ED0005C460008C0B24FF4F05100F0D3B90000F6
:100EE0002DE9F34F8BB04FF0000801F10C000C46D8
:100EF0004FF0010B46460DF1080A0190626901218D
:100F000001989047051E2DD0252D2CD0216A8847A9
:100F1000C0B16269012101989047216A8847002881
:100F2000F7D1411E62690198904700E0761CA169E3
:100F30000B988847216A88470028F7D1E1690B9808
:100F40008847DBE7A1690B9888470746A84201D18B
:100F5000761CD3E7E1690B9888477F1C02D1B8F172
:100F6000000F6FD047E1002762693D46394601987E
:100F700090472A2804D162690121019890470125F0
:100F8000DFF888926269012101989047A0F1300151
:100F90000A290AD24F45E5DC07EB870100EB410740
:100FA000303FDFD445F01005ECE7E90601D46FF0DF
:100FB00000476C280AD04C2814D0682815D06A281D
:100FC0000DD074281CD07A281AD01DE06269012146
:100FD000019890476C2802D045F0040514E045F0D4
:100FE00002050DE045F020050AE062690121019843
:100FF0009047682802D045F0080505E045F40065F3
:101000006269012101989047C4E9015765283DD0E4
:1010100019DC58287AD00CDC452837D004DC252888
:1010200026D0412831D131E046282FD047282CD175
:101030002CE05B2877D0612828D063287CD06428F6
:1010400023D15AE0D1E06F2848D008DC66281DD0B3
:1010500067281BD0692821D06E2816D127E0702878
:1010600045D0732868D0752847D078280DD14DE039
:10107000A1690B988847054625283FF469AFE169C7
:101080000B9888476D1C3FF46AAFB4E023466A466C
:101090006FF001000B99FFF7C1FA9FE045F04000A7
:1010A0006060A80723464FF0000236D43EE0E80710
:1010B0007FF447AF2068011D21600068290501D534
:1010C00006701BE7290701D5068017E7A90703D596
:1010D000F117C0E9006111E706600FE745F0400035
:1010E0006060A80723464FF0080216D41EE040F6C1
:1010F0000E0125EA0100606016E045F040006060E6
:10110000A80723464FF00A0207D40FE045F040003D
:101110006060A80708D5234610226FF001000B99E4
:10112000AFF300805AE007E0234610226FF0010081
:101130000B99FFF7C3F851E04FF000094F464B46BB
:10114000632802D05B2807D041E02079C00601D493
:101150000120A06001273AE06269012101989047CF
:101160005E2805D14FF00109626949460198904710
:10117000216939B900210A46534643F82120491C08
:101180000829FADBB0B3216969B9C11700EBD16254
:1011900053110AEB830122F01F02821A01200B680F
:1011A000904003430B6062690121019890475D28DC
:1011B000E8D1B9F1000F09D00020514651F82020A4
:1011C000D24341F82020401C0828F7DB02AB22461E
:1011D00000976FF001000B99FFF719F900280CDA5E
:1011E000401C08D1BBF1000F05D04FF0FF300DB00F
:1011F00000F00EB8FFE74046F9E7E90701D108F132
:10120000010806444FF0000B78E60000CCCCCC0C73
:1012100030BCBDE8C08F0029A8BF7047401C490002
:1012200008BF20F00100704710B4B0FA80FC00FA4B
:101230000CF050EA010404BF10BC704749B1CCF176
:10124000200421FA04F411FA0CF118BF0121214302
:101250000843A3EB0C01CB1D4FEA00614FEA1020BD
:1012600042BF002010BC704700EBC350104400295F
:10127000A4BF10BC7047401C490008BF20F001000B
:1012800010BC70477F2801D9002208E0064A02EB13
:101290005002C007127800D1120902F00F0201209B
:1012A0009040084070470000F4440008FEE7704793
:1012B000064900B50020C88101F1180003F062F86A
:1012C00003485DF804EB03F05DB8000080020020E5
:1012D000E003002072B6FEE710B500F047FA0B49B4
:1012E000C1F80402B1F80002B0F5FF7F07D291F80F
:1012F00002220A54B1F80002401CA1F80002BDE825
:10130000104001220249034801F064BA3000002075
:101310003202002058050020044900200122A1F8D3
:10132000000201F20221024801F054BA300000200C
:101330005805002070B58EB000F018FA3A4CD4F879
:101340000412401A32286DD9B4F80002002869D07E
:1013500036A12046FEF77CFF05005BD004F5027045
:1013600048210646FEF769FF04F51370011F821F2E
:10137000A0F11003CDE90C101438CDE90A32821F18
:10138000C31F011FCDE90810CDE9063208380E3A17
:10139000CDE904201439213BCDE902312438811EE6
:1013A000CDE90010C31E324622492846FEF76AFFE7
:1013B00094F820122D2009B984F8200294F83012F4
:1013C00009B984F8300294F8441209B984F8440247
:1013D00094F83C1209B984F83C0294ED840A04F5AF
:1013E000007402F097FF84ED060B94ED090A02F0F9
:1013F00091FF84ED0A0B207A1821C01DB0FBF1F299
:1014000001FB1200E0724FF400710748FEF715FF70
:10141000002020800EB00122BDE870400649074838
:1014200001F0D8B90EB070BD3000002024475047FD
:1014300047412C00344500083202002058050020A6
:1014400010B590F825100022022905D00421C163AF
:1014500080F82420012010BD01680B6823F00E03E2
:101460000B6001680B6823F001030B6090F84410D7
:10147000046C01F01C03012101FA03F3636080F89E
:10148000251080F82420104610BD10B590F82510C6
:101490000024022903D00421C16301241AE0016859
:1014A0000A6822F00E020A6001680A6822F001024E
:1014B0000A6090F84410036C01F01C02012101FA4B
:1014C00002F25A6080F82510002180F82410816B08
:1014D00001B18847204610BD70B5044600F046F9BA
:1014E0000546601C02D004480078044400F03EF930
:1014F000401BA042FAD370BD1C0000202DE9F04F24
:10150000DFF83492002309F1040A012403250AF1CB
:10151000040B87B00F270BF1040E04E104FA03F665
:1015200032407CD0D1F804C0BCF1010F08D0BCF12E
:10153000020F05D0BCF1110F02D0BCF1120F29D15E
:10154000D0F808C0CDF800C04FEA430C05FA0CF8FB
:10155000CDF80CC0DDF800C02CEA080CCDF800C0B6
:10156000D1F80C80DDF80CC008FA0CF8DDF800C0EA
:1015700048EA0C08C0F80880D0F8048091F804C04C
:1015800028EA0608CCF3001C0CFA03FC4CEA080C11
:10159000C0F804C0D1F804806FEA080C5FEA8C7CC4
:1015A00009D1D0F82CC02CEA060CC8F3C0069E4026
:1015B00046EA0C06C662D0F80CC04FEA430805FAAA
:1015C00008F62CEA060CCDF8148002968E6806FA0E
:1015D00008F646EA0C06C6604E68022E01D0122EAE
:1015E00015D1DE0800EB86060396366A4FEA437C87
:1015F0004FEADC6807FA08FC26EA0C06D1F810C0AE
:101600000CFA08FC4CEA060C039EC6F820C00668DB
:10161000DDF808C026EA0C0691F804C000E081E07D
:10162000DDF814800CF0030C0CFA08FC4CEA060CF4
:10163000C0F800C04E68F60074D5404ED6F860C0C1
:101640004CF0010CC6F860C0366E23F0030C06F0B7
:10165000010600963A4E66440296D6F808C09E07E8
:101660004FEA167807FA08F62CEA060CB0F1904F0C
:1016700004D0344EB04203D101261BE0002619E00D
:10168000314EB04201D1022614E0304EB04201D1B9
:1016900003260FE02E4EB04201D104260AE02D4E63
:1016A000B04201D1052605E02B4EB04201D10626FD
:1016B00000E0072606FA08F646EA0C06DDF808C040
:1016C000CCF80860D9F80060CC46D1F80480964385
:1016D0005FEAC83800D51643CCF80060DAF800603D
:1016E000D446D1F8048096435FEA883800D5164383
:1016F000CCF80060DBF80060DC46D1F8048096434B
:101700005FEAC82800D51643CCF80060DEF8006018
:10171000F446D1F8048096435FEA882800D5164342
:10172000CCF800605B1C0A6832FA03F67FF4F6AE70
:1017300007B000F013B800000004014000100240A0
:10174000000001400004004800080048000C004868
:1017500000100048001400480018004830BCBDE8E4
:10176000C08F0AB18161704781627047014880680B
:10177000704700001C000020024881680278114474
:10178000816070471C000020094810B501680024E2
:1017900041F480710160032000F072F8002000F035
:1017A00009F808B1012401E000F026F8204610BD38
:1017B0000020024070B50E4E05460024307898B1E6
:1017C0004FF47A71B1FBF0F00A490968B1FBF0F00F
:1017D00000F016FE40B9102D06D200222946501EF8
:1017E00000F02EF8756000E00124204670BD000076
:1017F0001C00002028000020094808B5016E41F0B7
:1018000001010166016E01F001010091816D41F05D
:1018100080518165806D00F08050009008BD00000F
:1018200000100240002809DB00F01F020121914056
:101830004009800000F1E020C0F80011704700006E
:10184000F0B40E4B1B680C46C3F30223C3F107052B
:10185000042D00D90425191D072901D2002300E019
:10186000DB1E012606FA05F1491E214099409E40E3
:10187000761E16403143F0BC02F03AB80CED00E0A1
:10188000064900F0070208684FF6FF03184040EAD7
:101890000220034A10430860704700000CED00E08E
:1018A0000000FA051649B0F5007F0868C0F3412032
:1018B00009D0022805D0086820F4C06040F4806098
:1018C0000860002070470128FBD0086820F4C06041
:1018D00040F4007008600B483222006850430A4A06
:1018E000B0FBF2F0401C00E0401E4A69520501D5F1
:1018F0000028F9D148694005E3D50320704700006E
:10190000007000402800002040420F00024800689C
:1019100000F4C06070470000007000402DE9F84FEF
:10192000044600270088E54D3E46010504F1200BE2
:101930001DD5606E78B1B0F5800F11D0B0F5000FF5
:1019400004D0B0F5400F22D001270FE0E86840F442
:101950008030E8601BE00021201D01F08FF803E0DB
:101960000021584601F020F9070010D03E4620889B
:10197000C00426D5A06EC0B1B0F1807F1AD0B0F1FE
:10198000007F0DD0B0F1407F19D0012718E0D5F8C5
:101990008800616E20F440000843C5F88800E6E73F
:1019A000E86840F48030E86009E00021201D01F083
:1019B00065F803E00021584601F0F6F80746F7B154
:1019C0003E46206880033AD5A86D4FF00008C0005D
:1019D00009D4A86D40F08050A865A86D4FF00108AB
:1019E00000F080500090DFF8D8A2DAF8001041F43F
:1019F0008071CAF80010FFF7B9FE814610E0D5F8F3
:101A00008800A16E20F040700843C5F88800D8E730
:101A1000FFF7ACFEA0EB0900022801D9032705E07F
:101A2000DAF80000C005F3D5002F7CD04FEA070696
:101A3000B8F1000F03D0A86D20F08050A865207881
:101A4000C00707D0D5F88800A16B20F00300084339
:101A5000C5F888002078800707D5D5F88800E16BA5
:101A600020F00C000843C5F888002078400707D50F
:101A7000D5F88800216C20F030000843C5F88800B4
:101A80002078000707D5D5F88800616C20F0C000E9
:101A90000843C5F888002078C00607D5D5F8880027
:101AA000A16C20F440700843C5F8880020788006B7
:101AB00007D5D5F88800E16C20F440600843C5F8EC
:101AC00088002088800507D5D5F88800E16D20F4CE
:101AD00040200843C5F888002088400507D5D5F880
:101AE0008800216E20F440100843C5F88800207853
:101AF000400607D5D5F88800216D20F440500843F2
:101B0000C5F888002078000607D5D5F88800616DF3
:101B100020F440400843C5F888002088C00509D556
:101B2000D5F8880000E01CE0A16D20F440300843A7
:101B3000C5F8880020884FF0006780044FF0806867
:101B40004FD5D5F88800E16E20F040600843C5F815
:101B50008800E06EB8423CD1E86840F48010E8604C
:101B60003FE0D5F8900010F4407015D0D4F8841000
:101B7000814211D0D5F89000D5F8901020F4407033
:101B800041F48031C5F89010D5F8901021F48031DF
:101B9000C5F89010C5F89000C00710D0FFF7E6FD1B
:101BA000074641F2883906E0FFF7E0FDC11B4945D1
:101BB00001D903263CE7D5F890008007F4D5D5F885
:101BC0009000D4F8841020F440700843C5F89000C9
:101BD0002EE7404505D10121201D00F04FFF00B147
:101BE00006462068000317D5D5F88800216F20F03D
:101BF00040600843C5F88800206FB84204D1E86807
:101C000040F48010E86007E0404505D10121201D27
:101C100000F034FF00B106462068400317D5D5F820
:101C20008800616F20F040600843C5F88800606F4D
:101C3000B84204D1E86840F48010E86007E040450D
:101C400005D10121201D00F019FF00B106462088B2
:101C500040041AD5D5F88800A16F20F04050084301
:101C6000C5F88800A06FB0F1805F03D0B0F1005FCD
:101C700005D00AE00221201D00F000FF03E0022150
:101C8000584600F091FF00B106462088000407D5B1
:101C9000D5F88800E16F20F080400843C5F888003F
:101CA0002068C00307D555F8880FD4F8801020F0BD
:101CB000004008432860304600F004B8001002409D
:101CC0000070004018BCBDE8E08F00002DE9F0472F
:101CD0000F46050058D0404E306800F00700B8426B
:101CE00009D2306820F0070038433060306800F0D7
:101CF0000700B84248D12878384CC0072CD0686813
:101D0000032811D0022812D0216898B14905002972
:101D10003ADAA16821F003010143A160FFF726FD33
:101D2000804641F2883910E021688901EFE7216897
:101D30008903ECE78907EAE7FFF718FDA0EB080144
:101D4000494502D90320BDE8F087A068696800F022
:101D50000C00B0EB810FEFD12878800705D5A06883
:101D6000A96820F0F0000843A060306800F0070088
:101D7000B8420BD9306820F0070038433060306833
:101D800000F00700B84201D00120DCE728784007C6
:101D900005D5A068E96820F4E0600843A0602878D1
:101DA000000706D5A068296920F4605040EAC10008
:101DB000A06000F03FF8A168094AC1F30311515C2B
:101DC00001F01F01C8400749086007480068BDE8E6
:101DD000F047FFF7EFBC0000002002400010024077
:101DE000AC440008280000202000002005480649D7
:101DF00000688968054AC1F30221515C01F01F01A6
:101E0000C84070472800002000100240EC44000841
:101E10000548064900688968054AC1F3C221515C3A
:101E200001F01F01C8407047280000200010024048
:101E3000EC44000870B52549002318468A68CC6830
:101E400012F00C0204F00306214C4FEA640509D09D
:101E50000C2A05D0042A32D0082A00D1284670BDA9
:101E6000012E10D10B681B0704D4D1F89430C3F3B2
:101E7000032302E00B68C3F30313164E56F8233016
:101E8000DAB10C2AEBD1C86800F00300022818D0A0
:101E9000032818D01846CA68CB68C2F30212C3F3ED
:101EA00006234343521CB3FBF2F2C868C0F34160FF
:101EB000401C4000B2FBF0F070BD184670BD2046DB
:101EC00070BD2046E7E72846E5E700000010024025
:101ED0000024F400BC4400082DE9F84304006FD04E
:101EE000FE4DA86800F00C06E86800F003072078B3
:101EF000C00664D576B10C2E01D1012F0AD0A0699D
:101F0000002828687AD040F001002860FFF72EFCF6
:101F100080465DE02868800702D5A0690028DED0F1
:101F2000216A2868000703D5286800F0F00004E063
:101F3000D5F89400F02202EA1010814216D9084622
:101F400000F0B6FE00283BD1286840F00800286069
:101F50002868216A20F0F000084328606868E16979
:101F600020F47F4040EA0120686016E0286840F0D5
:101F7000080028602868216A20F0F00008432860E3
:101F80006868E16920F47F4040EA0120686026B972
:101F9000206A00F08DFE0028D5D1FFF74BFFA9681D
:101FA000CF4AC1F30311515C01F01F01C840CD4974
:101FB0000860CD480068FFF7FDFB00287ED12EE0C9
:101FC000CAE000BFFFF7D2FBA0EB0800022876D8DA
:101FD00028688007F6D5286840F00800286028683F
:101FE000216A20F0F000084328606868E16920F465
:101FF0007F4040EA0120686011E0FFE720F0010027
:102000002860FFF7B3FB804606E000BFFFF7AEFB9A
:10201000A0EB08000228DAD828688007F6D42078D8
:10202000C00740D0082E18D00C2E01D1032F14D099
:102030006068B0F5803F17D0B0F5A02F286817D0A2
:1020400020F480302860286820F4802028606068B0
:10205000E0B1FFF78BFB804614E02868800322D5AF
:102060006068002878D01EE0286840F48030EDE7F2
:1020700040F480202860F7E7FFF778FBA0EB08002A
:102080006428A4D828688003F6D50CE0FFF76EFB1F
:10209000804605E0FFF76AFBA0EB0800642896D8AD
:1020A00028688003F6D4207880073BD5042E11D011
:1020B0000C2E01D1022F0DD0E06801E092E1F1E099
:1020C000002828681ED040F480702860FFF74EFB7F
:1020D00007460CE0286840050CD5E0680028C1D010
:1020E00008E000BFFFF742FBC01B022893D8286816
:1020F0004005F7D56868217C20F0F85040EA01607F
:1021000068600FE020F480702860FFF72FFB07461F
:1021100005E000BFFFF72AFBC01B0228B1D82868E2
:102120004005F7D42078000729D560690028D5F844
:10213000940012D040F00100C5F89400FFF716FBA0
:10214000074604E0FFF712FBC01B022899D8D5F818
:1021500094008007F6D512E000E120F00100C5F8F8
:102160009400FFF703FB074605E000BFFFF7FEFA08
:10217000C01B022885D8D5F894008007F6D42078B3
:10218000400766D5A86D0027C00008D4A86D40F0B0
:102190008050A865A86D012700F08050009053483A
:1021A0000168C90512D40168814641F4807101605B
:1021B000FFF7DCFA804605E0FFF7D8FAA0EB08004D
:1021C00002286FD8D9F80000C005F5D5A06801280D
:1021D00016D00528D5F8900017D020F00100C5F8DA
:1021E0009000D5F8900020F0040000BFC5F89000E2
:1021F000A06841F28839C0B1FFF7B8FA80460FE015
:10220000D5F8900040F00100F0E740F00400C5F878
:102210009000F5E7FFF7AAFAA0EB0801494541D87D
:10222000D5F890008007F5D50EE0FFF79FFA8046BD
:1022300006E000BFFFF79AFAA0EB0801494531D844
:10224000D5F890008007F5D41FB1A86D20F080501C
:10225000A865A06A38B302280AD00C2E7ED0286860
:1022600020F080702860286810F0205F77D0AAE006
:10227000E868E26A00F0030191422BD1216B00F083
:10228000700209011039914224D1626B00F4FE41C1
:10229000B1EB022F1ED1A26B00F40031072A03D04C
:1022A000012202E09DE089E00022914212D1A18F3B
:1022B00000F4C00249084905A1F50011914209D175
:1022C00094F8401000F0C06049084906A1F100717F
:1022D00081425CD00C2E41D0286809E000100240F9
:1022E000AC440008280000202000002000700040BE
:1022F00040017ED42868C0007BD4286820F080701C
:102300002860FFF733FA064605E000BFFFF72EFA14
:10231000801B022865D828688001F7D4D4E90B0116
:102320006FF00F0202EB01110843A18F520449081C
:1023300002EB4151626B41EA0221084394F84010DC
:102340004FF07E42490802EB41610843A16B090945
:1023500040EA4140E968284A114001E049E02EE0A6
:102360000843E860286840F080702860E86840F022
:102370008070E860FFF7FAF9044604E0FFF7F6F929
:10238000001B02282DD828688001F7D52FE0286887
:1023900080012CD4286840F080702860E86840F004
:1023A0008070E860FFF7E2F9044604E0FFF7DEF929
:1023B000001B022815D828688001F7D517E0E868C7
:1023C00020F00300E860E8680C490840E860FFF787
:1023D000CDF9044608E000BFFFF7C8F9001B02284A
:1023E00002D90320BDE8F88328688001F4D40020D6
:1023F000F8E70120F6E700008C809DF9FFFFEEFE74
:1024000010B5401EB0F1807F01D3012010BD4FF008
:10241000E02460610F21601701F06AFA0020A061DA
:1024200007202061002010BD7047704770470000F2
:102430002DE9F04102680446D0691168936840F6BE
:102440000F0528424FF0000505D1860678D58E0687
:1024500076D5616EF3E0834F03F001060F403743FA
:102460007ED0C70709D0CF0507D501271762D4F85A
:10247000802042F00102C4F8802082070AD5DA07E2
:1024800008D0276802223A62D4F8802042F0040281
:10249000C4F8802042070AD5DA0708D0236804224E
:1024A0001A62D4F8802042F00202C4F880200207A9
:1024B0000CD501F02002324308D0236808221A62AA
:1024C000D4F8802042F00802C4F8802002050BD521
:1024D0004A0109D523684FF400621A62D4F88020BB
:1024E00042F02002C4F88020D4F88020002A2FD0A7
:1024F000800605D5880603D5616E09B12046884758
:10250000D4F8800021688968490602D410F0280FA9
:1025100020D0204600F078FF20688168490614D555
:10252000816821F040018160206F70B14E49816364
:10253000206FFEF7AAFF00280AD0206F816B01E010
:102540000EE02046BDE8F04108472046FFF76EFF49
:10255000BDE8F0812046FFF769FFC4F88050F7E737
:10256000276E2026012F59D1C70657D5CF0655D53E
:10257000102010622268906840062ED5216F0868EE
:1025800040680004000CE3D0B4F858308342DFD92F
:10259000A4F85A0008680068800617D4106820F470
:1025A000807010602068816821F0010181602068DE
:1025B000816821F040018160E66725662068016836
:1025C00021F010010160206FFEF73AFFB4F85800C7
:1025D000B4F85A10401A81B21CE0B4F85800B4F8AC
:1025E0005A10401A81B2B4F85A000028B0D000291D
:1025F000AED0106820F4907010602068826822F0DD
:1026000001028260E667256665662068026822F03E
:10261000100202602046FFF707FF99E7C70209D5BD
:102620005B0207D54FF4801010622046BDE8F041F0
:10263000FFF7FBBE030606D50B0604D5A16E0029E5
:102640007FF47FAF84E7400682D5480680D51068C6
:1026500020F040001060A6672046A56600F051F902
:1026600076E7000020010004F533000810B50400EF
:1026700002D0A06F10B107E0012010BD002084F847
:102680007400204600F026F82420A0672068016826
:1026900021F001010160204600F04AFF0128ECD042
:1026A000606A10B1204600F013FE2068416821F4F2
:1026B000904141602068816821F02A018160206892
:1026C000016841F0010101602046BDE8104000F0C2
:1026D00063BE0000F0B587B0044614216846FDF7DC
:1026E000ACFD374F26680022364902230324072514
:1026F0004FF09040BE421FD10E6E46F480460E66EB
:102700000E6E06F480460596CE6C46F00106CE6449
:10271000C96C02AE01F0010105916102CDE900131F
:1027200086E834006946FEF7E9FE002211462520BE
:10273000FFF786F8252040E0234FBE421AD18E6D68
:1027400046F400368E658E6D06F400360596CE6C26
:1027500046F00106CE64C96C02AE01F0010105919C
:102760000C21CDE9001386E834006946FEF7C6FE69
:1027700007B0F0BD15488642FAD1886D40F480203C
:102780008865886D00F480200590C86C40F00400D6
:10279000C864C86C02AE00F0040005903020CDE99A
:1027A000000386E8340069460948FEF7A7FE0022C8
:1027B00001212720FFF744F82720FFF733F8D7E758
:1027C0000038014000100240004400400048004032
:1027D0000008004810B4C36F202B1BD1B9B1B2B1AF
:1027E00090F87430012B15D0012380F87430002349
:1027F0000366094C0368A34206D05C68240203D533
:102800001C6844F080641C6010BC00F0B5BF01205F
:1028100010BC70470220FBE70080004010B509495A
:10282000044600680968884201D101F00BFE0649A0
:1028300020680968884203D1BDE81040FEF74CBD0E
:1028400010BD000060060020580500202DE9F84367
:102850000446806F1F4616460D4620284FD1CDB145
:10286000C6B194F87400012849D0012084F874009E
:102870004FF00008C4F880802120A067FEF776FFA3
:10288000A4F850608146A4F85260A068B0F5805F5B
:1028900003D004E00120BDE8F883206928B12E466A
:1028A0005FF0000584F8748010E00026FAE78021CC
:1028B000204600F0A9FFB8B9C6B116F8010B21688F
:1028C0000885B4F85200401EA4F85200B4F8520033
:1028D0004B464FF0000200970028E8D14FF040012E
:1028E000204600F091FF30B10320D4E735F8020B09
:1028F000C0F30800E3E72020A0670020CBE7022018
:10290000C9E77047FEE7000005480021FF22C181AA
:10291000027504228275C1750249FF200870704754
:10292000800200200000002030B587B014216846E6
:10293000FDF783FC1F48C16C41F00401C164C16C08
:1029400001F004010591C16C41F08001C164C16CCA
:1029500001F080010591C16C41F00101C164C16CBD
:1029600001F001010591C16C41F00201C164C06C2C
:102970004FF0904500F002000590002220212846EB
:10298000FEF7EFFE4FF4005000900B480024CDE915
:10299000010469460948FEF7B1FD2020009001209E
:1029A000CDE90104694628460394FEF7A7FD07B068
:1029B00030BD000000100240000021100008004857
:1029C0000D4810B50B4901604FF4165141600021CC
:1029D00081600C22C160C0E904128161C1610162A1
:1029E0004162FFF743FE002803D0BDE81040FEF728
:1029F00071BC10BD00380140580500200D4810B5CD
:102A00000B4901604FF4E1314160002181600C22EB
:102A1000C160C0E904128161C16101624162FFF7D6
:102A200025FE002803D0BDE81040FEF753BC10BDC2
:102A300000440040DC0500200D4810B50B49016042
:102A40004FF416514160002181600C22C160C0E941
:102A500004128161C16101624162FFF707FE002833
:102A600003D0BDE81040FEF735BC10BD0048004063
:102A700060060020FEE7FEE7704700002DE9F04108
:102A8000444C05468846E0680026810728680DD03A
:102A9000E16801F00301814216D1A8B1E0686968DC
:102AA000C0F30210401C88420ED120E0012804D05F
:102AB000022805D0032807D108E02168890701E032
:102AC00021684905002907DB01265FE021688903A9
:102AD00002D421684903F5E7E1686A686FF00F03E3
:102AE00021F0730103EB021211430143E1602068FE
:102AF00020F080602060FEF739FE074605E000BF49
:102B0000FEF734FEC01B022837D820680001F7D436
:102B1000B8F1000F18D0B8F1010F1ED0287D4FF08A
:102B20007E41400801EB4060A96840EA012021692C
:102B3000194A114008432061206840F080602060FD
:102B4000FEF714FE07461AE0A868E96800020909C2
:102B500040EA41402169114AEBE7288A10494008C0
:102B600001EB4050A96840EA012021690D4AE0E7E5
:102B7000FEF7FCFDC01B022801D9032606E02068F1
:102B80000001F5D52069A969084320613046BDE8F8
:102B9000F081000000100240FF80FFF9FF80FDFF80
:102BA0000000E0FFFF809FFF2DE9F0413D4C06460D
:102BB0008846E0680025810730680DD0E16801F0A3
:102BC0000301814216D1A8B1E0687168C0F3021018
:102BD000401C88420ED120E0012804D0022805D0F4
:102BE000032807D108E02168890701E02168490529
:102BF000002907DB012551E02168890302D42168FF
:102C00004903F5E7E16872686FF00F0321F0730183
:102C100003EB021211430143E160206820F0805071
:102C20002060FEF7A3FD074605E000BFFEF79EFD0E
:102C3000C01B022829D820688000F7D4B8F1000F03
:102C400015D0307C4FF07E41400801EB4060B16808
:102C500040EA01206169144A11400843606120681C
:102C600040F080502060FEF781FD07460FE0B0681D
:102C7000F1680002090940EA414061690B4AEBE74B
:102C8000FEF774FDC01B022801D9032506E0206869
:102C90008000F5D560697169084360612846BDE828
:102CA000F081000000100240FF80FFF9FF80FDFF6F
:102CB000F8B51C4D06460024A86DC00002D5FEF7ED
:102CC00025FE0DE0A86D40F08050A865A86D00F0CD
:102CD00080500090FEF71AFEA96D21F08051A96581
:102CE000B0F5007F04D0802E07D94FF003040AE02E
:102CF000802E08D9A02E01D804E001D1022402E0E0
:102D0000702E00D101240848016821F007012143F9
:102D10000160006800F00700A04201D00120F8BD6A
:102D20000020F8BD00100240002002407047000063
:102D30002DE9F0471C4C03274FF00008E77584F895
:102D4000148004254FF47A69A5754A4617A118A086
:102D500000F06AF94FF0FF3A01281FD104F58C7694
:102D60004A4686F80080A575C84610A118A000F054
:102D70005BF9012812D13070A57542460BA11DA048
:102D800000F052F9012809D102203070A5754246A1
:102D900006A11CA000F048F9012802D05046BDE869
:102DA000F08737700120FAE7800200204F4B0000C7
:102DB00041542B53415042523D332C312C22436F0E
:102DC0006E74797065222C2247505253220D0A00EE
:102DD00041542B53415042523D332C312C2241500F
:102DE0004E222C22762D696E7465726E6574220DEA
:102DF0000A00000041542B53415042523D312C31C6
:102E00000D0A000041542B53415042523D322C31A7
:102E10000D0A000010B54FF47A6206A106A000F07A
:102E200003F901464FF0FF30012902D1064908702D
:102E3000012010BD4F4B000041542B5341504252D2
:102E40003D302C310D0A000098030020094910B5CF
:102E5000042088754FF47A6207A108A000F0E4F816
:102E600001464FF0FF30012903D1084981F83300B2
:102E7000012010BD800200204F4B000041542B4820
:102E80005454505445524D0D0A0000009803002040
:102E90002DE9F14F3B4E0020A6F58C7486F83400E6
:102EA000042540F6B837A5753A4637A137A000F09B
:102EB000BBF84FF00109012801D186F83390A575C0
:102EC0003A4631A135A000F0AFF8012802D1022026
:102ED00086F83300A5753A462BA1364800F0A4F8D1
:102EE000012802D1032086F83300A57540F6B832D8
:102EF00025A131A000F098F8012801D186F83350BF
:102F00000027AA4604F1180B49F6404884F816A099
:102F100042F2107233A136A000F086F801281CD1CD
:102F2000009801F07FFAFEF7C3F9FEF71FFC054693
:102F300004E015A15846FDF78BF920B9FEF716FC01
:102F4000411B4145F5D384F8169044F620622EA12A
:102F50002EA000F069F8012807D07F1CFFB2042FD3
:102F6000D4D396F8340048B105E086F8349040F6A2
:102F7000B830FEF7B1FA012000F052B84FF0FF3040
:102F8000FAE70000980300204F4B000041542B4803
:102F9000545450494E49540D0A00000041542B48E6
:102FA000545450504152413D22434944222C310D4A
:102FB0000A0000008045000841542B4854545050EA
:102FC0004152413D22434F4E54454E54222C2261E2
:102FD00070706C69636174696F6E2F6A736F6E22B3
:102FE0000D0A0000444F574E4C4F41440000000072
:102FF00041542B48545450444154413D3130302CBD
:1030000031303030300D0A003230300041542B481E
:10301000545450414354494F4E3D310D0A00000075
:1030200018BCBDE8E08F00002DE9F74F4FF0FF39E5
:1030300082B017464C462D4EDFF8B4804EE000BFFC
:10304000FEF736F9FEF792FB0546FEF78FFB009080
:10305000029801F0E7F926484FF0000A00F10C0150
:1030600000F1180B019108E0FEF780FB401BB8420D
:1030700003D9484605B000F03FB830780028F3D0B7
:10308000FEF774FB054617E001221A480199FFF785
:10309000A1FB70B1FEF76AFB0099401A64280BD9B6
:1030A00086F800A058460399FDF7D2F8E0B1012454
:1030B00018E0FEF75BFB0090FEF758FB401BB842A0
:1030C000E2D3601CD9D0012C0CD04FF47A70FEF7FB
:1030D00003FA98F81610491E88F8161098F816008A
:1030E0000028ADD12046C5E74C46C6E718000020B1
:1030F000800200206006002030BCBDE8C08F0000C8
:103100002DE9F047FFF700FC274C04264FF47A70B6
:10311000A675FEF7E1F940F6B8394A4623A124A086
:10312000FFF782FF751F401C1DD0A67541F2883243
:1031300021A125A0FFF778FF401C17D04FF4FA60BB
:10314000FEF7CAF9FEF712FB4CF250310844012792
:1031500004F1180820611FA14046FDF779F840B13D
:103160000220E07513E02846BDE8F0872846257563
:10317000FAE71BA14046FDF76BF818B12575284604
:10318000E775F1E7FEF7F2FA21698842E3D9A675FF
:103190004A4606A116A0FFF747FF012801D11748AC
:1031A00007700120E0E70000800200204F4B000084
:1031B00041540D0A000000002B4350494E3A205262
:1031C000454144590000000041542B4350494E3FB3
:1031D0000D0A0000534D53205265616479000000D0
:1031E0004E4F5420494E5345525445440000000070
:1031F00041542B434D47463D310D0A00000000204D
:10320000FEF7BABA30B5B9B0442122A8FDF715F8D7
:10321000142133A8FDF711F888216846FDF70DF851
:103220000220C10125911021229026912C9001218C
:10323000CDE92D010725CDE930500A2132902F919B
:1032400022A8FEF749FE08B172B6FEE70F2000245F
:1032500033900320CDE934043694042133A8379405
:10326000FEF734FD08B172B6FEE70F940E9468467F
:1032700000951094FEF752FB08B172B6FEE74FF4CA
:103280000070FEF70FFB002801D072B6FEE739B0E0
:1032900030BD00000B48016841F4700101600A482C
:1032A000016841F001010160002181600268074B63
:1032B0001A4002608214C260026822F48022026016
:1032C0008161704788ED00E000100240FFFFF6EAE0
:1032D00090F82410C90706D001684A68836A22F46E
:1032E00000321A434A6090F82410890706D5016815
:1032F0004A68C36A22F480321A434A6090F8241064
:10330000490706D501684A68036B22F480221A43F4
:103310004A6090F82410090706D501684A68436B93
:1033200022F400421A434A6090F82410C90606D5D8
:1033300001688A68836B22F480521A438A6090F88D
:103340002410890606D501688A68C36B22F40052EE
:103350001A438A6090F82410490611D501684A681A
:10336000036C22F480121A434A60016CB1F5801F8D
:1033700006D101684A68436C22F4C0021A434A60CD
:1033800090F82410090606D501684A68806C22F47A
:10339000002202434A607047F8B500260446C0F890
:1033A0008060FEF7E3F90546206800686FF07E470D
:1033B000000708D52B4600224FF400112046009745
:1033C00000F022FA60B92068006840070AD52B4651
:1033D00000224FF480012046009700F015FA08B152
:1033E0000320F8BD2020A067E067266684F874609B
:1033F0000020F8BD10B5806A0021A0F85A10A0F88E
:103400005210FFF713F810BD01680A6822F4907299
:103410000A6001688A6822F001028A60016E01294F
:1034200004D101680A6822F010020A602021C167F5
:10343000002101664166704770B5B0F85C10C26F3C
:1034400004460068222A04D0018B41F00801018360
:1034500070BD808C626D08401080606D801C60655E
:10346000B4F85A00401EA4F85A00B4F85A000028D4
:10347000EED12068016821F49071016020688168B4
:1034800021F0010181602020E06700256566206E43
:10349000012804D02046FFF7C1F9256670BD2068D9
:1034A000016821F010010160B4F858102046FEF7C1
:1034B000BBFFF2E770B5B0F85C10C26F044600685D
:1034C000222A04D0018B41F00801018370BD808C59
:1034D0000840616D0870606D401C6065B4F85A006A
:1034E000401EA4F85A00B4F85A000028EED1206813
:1034F000016821F4907101602068816821F0010168
:1035000081602020E06700256566206E012804D0D8
:103510002046FFF783F9256670BD2068016821F019
:1035200010010160B4F858102046FEF77DFFF2E765
:103530002DE9F0410446016880682269E36910437F
:10354000626900251A431043814F0A68814B1A4073
:1035500002430A6020684168E26821F44051114347
:1035600041602168A069B94201D0226A10438A688B
:1035700022F4306202438A607749226877488A429F
:103580000DD1D0F8880010F0030006D0012866D0D5
:10359000022854D0032851D163E001204FE0704944
:1035A0008A420BD1D0F8880010F00C0047D00428D4
:1035B00045D0082851D00C2840D152E069498A42B0
:1035C0000BD1D0F8880010F0300038D0102846D049
:1035D000202842D0302831D143E063498A420BD1C0
:1035E000D0F8880010F0C00029D0402837D08028BB
:1035F00033D0C02822D134E05C498A420ED1D0F8C1
:10360000880010F440701AD0B0F5807F27D0B0F554
:10361000007F22D0B0F5407F10D122E0BA420DD118
:10362000D0F8880010F4406009D0B0F5806F16D053
:10363000B0F5006F11D0B0F5406F12D010204C499A
:1036400000264FF40043BA422CD160B102280DD0BD
:1036500004280DD008286FD10EE00220EFE70420E7
:10366000EDE70820EBE7FEF7C1FB03E00B4603E0C4
:10367000FEF7E0FB030066D0626802EB420098426E
:103680005AD8B3EB023F57D8190E1B02500818182E
:1036900071410023FCF796FD364AA0F54071914236
:1036A0004FD949E0E2694FF6EF779A4228D10928CD
:1036B00042D2DFE800F005080D41224141410E00F1
:1036C000FEF794FB01E0FEF7A3FB030001D13AE013
:1036D0000B466068590001EB5001B1FBF0F080B27D
:1036E000A0F11001B94227D84FF6F0710140C0F3A4
:1036F000420001432068C16025E0FEF79BFBE4E740
:10370000092819D2DFE800F005080D181A18181852
:103710000E00FEF76BFB01E0FEF77AFB030001D120
:1037200011E00B46606803EB5001B1FBF0F080B292
:10373000A0F11001B94204D9012504E0FEF77AFB9B
:10374000ECE72168C86066662846A666BDE8F08199
:1037500000800040F369FFEF003801400010024094
:103760000044004000480040004C00400050004031
:103770000024F400FFFC0F0030B54165A0F858208C
:10378000A0F85A200022426681684FF48055FF233A
:10379000A94204D1016921BB40F2FF1127E07F2437
:1037A000E9B1B1F1805F1FD0A0F85C20C0F88020A3
:1037B0002221C16701688B6843F001038B60816837
:1037C000A94201D10169C1B10D49416680F8742057
:1037D0000068016841F490710160002030BD01690A
:1037E00041B9A0F85C30E1E7016919B13F21A0F8C7
:1037F0005C10DBE7A0F85C40D8E70249E5E7000091
:10380000B5340008393400082DE9F0479A461746C8
:103810000E4604464FF000094FF02008089D39E09D
:10382000681C37D0FDF7A2FFA0EB0A00A84222D8FF
:103830000DB32068016849072CD5C069C043000555
:1038400028D421684FF4006008622068016821F4E0
:10385000D07101602068816821F001018160C4F8A5
:103860007880C4F87C80C4F8808000BF84F87490AD
:103870000320BDE8F0872068016821F4D071016061
:103880002068816821F001018160C4F87880C4F863
:103890007C80EBE72068C06936EA000004D0002095
:1038A000B842BDD00020E4E70120F9E70148FEF767
:1038B000BFBD0000580500200148FEF7B9BD00005B
:1038C00060060020FEE700000FB4084B10B504A905
:1038D00002AA039800F092F9044602A9002000F021
:1038E00013FD204610BC5DF814FB000009430008DE
:1038F0000907090E002804DB00F1E02080F800141D
:10390000704700F00F0000F1E02080F8141D7047B0
:1039100010B52DED040B86B09DED060B10EE100AD0
:1039200010EE901A8DED000B002818BF01200843FF
:1039300020F00040C0F17F6000F1E040C00F21D1D5
:103940009DED080B10EE101A10EE900A8DED000B95
:10395000002918BF0121084320F00040C0F17F601A
:1039600000F1E040C00F0DD129490798B1EB400F9D
:1039700004BF0698002842D00998400004BF089868
:1039800000283CD09DED080B53EC102B9DED060B51
:1039900051EC100BFDF7EEF9CDE902019DED020BA4
:1039A00040F2FF7110EE900A8DED000B31EA1050DD
:1039B00021D00798039900F0004001F000418842AF
:1039C00019D09DED080B8DED040B9DED020B8DEDD7
:1039D000000B10EE900A059961F31E0005909DED15
:1039E000041B9DED020B51EC110B53EC102BFCF75B
:1039F000D8FFCDE902019DED020B0AB010BD0120F8
:103A000000F02AF80AB0BDE8104000F005B8000048
:103A10000000E0FF000000009FED050B10B553EC27
:103A2000102B51EC100BFCF7C7FF41EC100B10BD35
:103A3000000000000000000002E008C8121F08C1DA
:103A4000002AFAD170477047002001E001C1121F1F
:103A5000002AFBD170470000014908607047000050
:103A60002C0000202DE9FF5F82B00021DDE9043049
:103A7000020DDDF840B0034318D044F61050A2F216
:103A8000FF3242431514119801281FD0A5EB0B00FB
:103A9000401C5FEA000A4FF000064E4FDFF83891F5
:103AA000B046504615D5CAF1000413E01198012420
:103AB0004AA3012801D16FEA0B010298119AC0E9CB
:103AC0000031C0E9024206B000F08EB8CBF1000030
:103AD000DFE704460021404A491842EB0450CDE993
:103AE000001012E0E00707D032463B464046494608
:103AF000FDF7CBF88046894632463B4610461946CC
:103B0000FDF7C3F806460F466410002CEAD1DDE944
:103B10000401DDE90023BAF1000F06DAFDF7B5F87C
:103B200042464B46FDF7B1F805E0FCF745FF42463B
:103B30004B46FCF741FF04460E460022284BFDF79A
:103B400083F903D84FF0FF30014607E00022254BF0
:103B500020463146FCF781FEFDF75EF9102409E0AE
:103B6000002C0ADB0A220023FCF72CFB039B3032DB
:103B70001A55641E50EA0102F2D1641C039AC4F182
:103B800011031444119A012A03D0012208430DD1D4
:103B90000AE0084304D000204FF0110B119072E7A7
:103BA000A3EB0B056D1E0DE05B4504DD4FF000023D
:103BB00005F1010504E003DA4FF00002A5F101056B
:103BC000002AECD002981199C0E90231C0E9004501
:103BD00079E70000000014400000F03F30000000D2
:103BE0000000F0430000E03F30BCBDE8C09F30382B
:103BF0000A2801D201207047002070472DE9FF4FAD
:103C000095B09A46884606460025EEE1252877D1EC
:103C100000242746F94A0121039400E0044316F8E2
:103C2000013F203B01FA03F01042F7D130782A28F7
:103C300011D06FF02F033078A0F13002092A16D886
:103C4000039A44F0020402EB820203EB42021044A6
:103C5000761C0390EFE758F8042B0392002A03DA4E
:103C6000504244F40054039044F00204761C30782F
:103C70002E2816D116F8010F44F004042A280DD07E
:103C80006FF02F023078A0F13003092B09D807EB31
:103C9000870302EB4303C718761CF3E758F8047B4D
:103CA000761C30786C280FD006DC4C2817D068289A
:103CB0000DD06A2814D104E0742810D07A280FD1CE
:103CC0000DE044F400140AE044F4801401E044F4EC
:103CD00040147278824202D104F58014761C761C5E
:103CE000307866280BD013DC582877D009DC002800
:103CF00075D04528F6D04628F4D047281AD193E14C
:103D000018E0632835D0642879D0652812D18BE17A
:103D1000702873D008DC6728F1D069286FD06E282E
:103D20000DD06F2806D1ACE073282CD0752874D044
:103D3000782853D05246179990476D1C54E1C4F32C
:103D40000250022809D003280DD0D8F8001004280A
:103D50000DD00D6008F1040846E1D8F80010EA170C
:103D6000C1E90052F6E7D8F800100D80F2E70D70B7
:103D7000F0E718F8041B8DF8001000208DF8010002
:103D8000EB46012003E058F804BB4FF0FF30610719
:103D90004FF0000102D40DE009F101018946B9425A
:103DA0000FDA8145F8DB1BF809100029F4D108E08F
:103DB00009F1010189468142FADB1BF8091000294B
:103DC000F6D103985346A0EB090721463846179AC7
:103DD00000F083FA284400EB090507E044E008E11D
:103DE0000DE01BF8010B524617999047B9F10109F4
:103DF000F7D2534621463846179AF2E039E00A21B5
:103E0000C4F302524FF0000B0091022A06D058F87A
:103E1000040BC117032A09D00AE023E008F10700C8
:103E200020F00702F2E80201904605E000B2C11757
:103E3000042A01D140B2C117002906DA0A4600213E
:103E4000404261EB02012D2202E0220504D52B2223
:103E50008DF80420012203E0E20701D02022F7E7D9
:103E6000914657E00A2100E010214FF0000B00912D
:103E70000BE010214FF0000B44F0040408270091E0
:103E800003E008204FF0000B0090C4F30252022A16
:103E900005D058F8040B0021032A08D008E008F1E7
:103EA000070020F00702F2E80201904603E080B22A
:103EB000042A00D1C0B24FF0000922072AD5327877
:103EC000702A07D0DDF800C08CF0100C5CEA0B0CF7
:103ED00005D00EE040228DF80420012208E050EACF
:103EE000010306D030238DF804308DF8052002221E
:103EF0009146009B83F0080353EA0B030AD150EA72
:103F0000010201D1620705D530228DF804204FF05F
:103F100001097F1E3278582A04D039A20C920CAACB
:103F200002920BE03BA2F9E75B46009AFCF74AF9E4
:103F30000C9B9B5C029A521E0292137050EA010283
:103F4000F2D1029804A9081A00F1200B600702D5EB
:103F500024F4803400E001275F4502DDA7EB0B006D
:103F600000E0002000EB0B01009003984944401A48
:103F70000390E00306D453462146179A039800F0B5
:103F8000ACF90544002706E001A85246C05D179928
:103F900090476D1C7F1C4F45F6DBE0030CD5534664
:103FA0002146179A039800F098F9054404E0302060
:103FB0005246179990476D1C0099481E00900029A1
:103FC000F5DC08E00298029952460078491C0291FB
:103FD000179990476D1CBBF10001ABF1010BF1DCAF
:103FE0005BE100F068F90544761C307800287FF426
:103FF0000DAE19B0284600F05BB900000928010099
:10400000303132333435363738396162636465664E
:104010000000000030313233343536373839414210
:104020004344454600000000600700D4062708F11D
:10403000070020F00700F0E80223804603F0004C60
:104040005FEA0C0001D097A009E0200501D596A0F9
:1040500005E0E00701D095A001E0AFF24C0013901D
:10406000307823F0004365280CD006DC452809D0C1
:1040700046281DD047287FD13BE0662818D0672806
:104080007AD136E00021112F01DB112000E0781CED
:10409000CDE9000104A90CA8FFF7E4FCDDE90D015E
:1040A0000C9A4FF0000B07F10109109200914EE0BD
:1040B0004FF000400097CDE9011004A90CA8FFF7CC
:1040C000D1FCDDE90D020C9B0F994FF0000B9146DE
:1040D0001093009211B9791C00EB0109B7EB0900AC
:1040E00003D4C0F1FF3B07F10109A9EB07000190E0
:1040F00042E0012F00DA01270021112F01DD1120FC
:1041000000E03846CDE9000104A90CA8FFF7AAFC9D
:10411000DDE90D010C9A00914FF0000BB9461092A9
:1041200021070FD4009A4A4503DA914601E0A9F12C
:104130000109B9F1010F05DD109AA9F10101515CE6
:104140003029F4D0B84202DA10F1040F03DA012169
:10415000CDE9011010E0002803DC8344A9EB000145
:1041600002E0411C494500DD8946A0EB0B00401CE4
:1041700001904FF000400290200705D40198484577
:1041800002DB4FF0FF30019000208DF84B000298C9
:104190000DF14B07B0F1004F25D002200C902B20E1
:1041A0000D90029800280CDA404202902D200D90CC
:1041B00007E00A210298FCF781FC3031029007F8F1
:1041C000011D0C99481E0C900029F2DC0298002871
:1041D000EFD1791E0D980870307800F0200040F083
:1041E000450007F8020D11A8C01BC01D02901398CE
:1041F000007800B1012000EB0901019801EBE071AA
:10420000029801440398401A401E0390E00306D42C
:1042100053462146179A039800F05FF80544139817
:10422000007818B15246179990476D1CE00323D5CA
:1042300053462146179A039800F04FF805441BE0B7
:10424000BBF1000F07DB0098584504DD1098179963
:1042500010F80B0001E01799302052469047019862
:104260000BF1010B401E05F10105019004D12E2038
:104270005246179990476D1CB9F10001A9F1010947
:10428000DEDC05E017F8010B5246179990476D1CCC
:104290000299481E02900029F4DC53462146179AE1
:1042A00003989EE62D0000002B0000002000000077
:1042B00030BCBDE8C08F2DE9F041044600251E4604
:1042C0001746880404D405E039462020B0476D1C09
:1042D000641EF9D52846BDE8F0812DE9F041044679
:1042E00000251E469046C80301D5302700E0202750
:1042F000880404D505E041463846B0476D1C641E6D
:10430000F9D52846BDE8F0810A68531C0B6010708F
:104310007047000010B52DED048BB0EE408A18EE0A
:10432000100AFCF7B8FB41EC100B9FED111BFFF7D7
:10433000EFFA9FED111A51EC100BC8EE011ABDEE09
:10434000E11AB8EEC18A9FED0D1B53EC112BFCF75F
:1043500033FB41EC190B18EE100AFCF79CFB53ECF5
:10436000192BFCF77AFABDEC048B41EC100B10BD55
:1043700000000000000059400000C842000000009A
:1043800000004E4000210A464254491CFF29FBDD33
:104390007047000086B0FDF7F7F9FEF733FFFEF730
:1043A000C3FAFEF70DFBFEF729FBFEF745FB00F015
:1043B00073F8FCF7B1FF174C174D00BFFEF7A0FED6
:1043C0000028FBD0FEF7B4FC0028F7D0FCF7B2FFC2
:1043D00094ED860B02AB85ED000B94ED8A1B85ED09
:1043E000021B94F80B0294F80A2294F8091283E84D
:1043F00007008DED001B53EC102B08490848FFF710
:1044000063FA0748FEF744FD08B1FEF71FFDFEF70B
:1044100001FDD3E73000002008000020D04500084F
:10442000E004002010B50446FBF724FF214682B2C9
:10443000BDE8104040F6B8330148FEF707BA000067
:1044400060060020104830B4C2890021FF2A00D93C
:10445000C1810D4AC4891832037BA354C2890B4C15
:10446000037BA354084B1933D154C289631CD15424
:10447000521CC2810649012002460870024930BC24
:104480000C310448FEF7A6B980020020E0030020AA
:104490001800002060060020012202490248FEF7B1
:1044A00099B900008C020020600600200000000086
:1044B000000000000102030406070809A0860100AD
:1044C000400D0300801A060000350C0040420F002A
:1044D00080841E0000093D0000127A000024F400D0
:1044E00000366E010048E801006CDC0200000000AC
:1044F00001020304DDDDDDDDDCBBBBDDDDDDDDDD9B
:10450000DDDDDDDD9888888888888888777777770B
:1045100077888888855555566666666666666666D7
:104520006668888883333332222222222222222282
:104530002228888D2447504747412C2532686864DB
:10454000253268686425326868642E253368642CD7
:1045500025662C25632C25662C25632C256868642C
:104560002C256868642C25662C25662C25632C2553
:1045700068642C25732C2A2532730D0A0000000074
:1045800041542B48545450504152413D2255524CB5
:10459000222C2268747470733A2F2F7465737469B7
:1045A0006E672D64626263322D64656661756C743A
:1045B0002D727464622E6669726562617365696FDB
:1045C0002E636F6D2F2E6A736F6E220D0A0000002E
:1045D0007B2275736572223A2246784677455145AB
:1045E000413850636569464F4F5133305975626D9C
:1045F000504D524C636D6A487A766F394963304149
:104600007A222C226C61746974756465223A2225C1
:1046100066222C226C6F6E67746974756465223A29
:10462000222566222C2274696D65223A2225643A7D
:1046300025643A2564227D0D0A0000005C460008CE
:104640000000002030000000383A00088C460008C6
:1046500030000020B80A0000483A000800000000BE
:10466000000000000000000000000000000000004A
:104670000000000000000000010000001000000029
:0C4680000000000000093D0000000000E8
:040000050800018965
:00000001FF
